{
  "contractName": "Rental",
  "abi": [
    {
      "inputs": [
        {
          "internalType": "address payable",
          "name": "_owner",
          "type": "address"
        },
        {
          "internalType": "uint256",
          "name": "_price",
          "type": "uint256"
        },
        {
          "internalType": "uint256",
          "name": "_deposit",
          "type": "uint256"
        }
      ],
      "stateMutability": "payable",
      "type": "constructor",
      "payable": true
    },
    {
      "inputs": [],
      "name": "currentState",
      "outputs": [
        {
          "internalType": "enum Rental.State",
          "name": "",
          "type": "uint8"
        }
      ],
      "stateMutability": "view",
      "type": "function",
      "constant": true
    },
    {
      "inputs": [],
      "name": "deposit",
      "outputs": [
        {
          "internalType": "uint256",
          "name": "",
          "type": "uint256"
        }
      ],
      "stateMutability": "view",
      "type": "function",
      "constant": true
    },
    {
      "inputs": [],
      "name": "item_price",
      "outputs": [
        {
          "internalType": "uint256",
          "name": "",
          "type": "uint256"
        }
      ],
      "stateMutability": "view",
      "type": "function",
      "constant": true
    },
    {
      "inputs": [],
      "name": "owner",
      "outputs": [
        {
          "internalType": "address payable",
          "name": "",
          "type": "address"
        }
      ],
      "stateMutability": "view",
      "type": "function",
      "constant": true
    },
    {
      "inputs": [],
      "name": "renter",
      "outputs": [
        {
          "internalType": "address payable",
          "name": "",
          "type": "address"
        }
      ],
      "stateMutability": "view",
      "type": "function",
      "constant": true
    },
    {
      "inputs": [],
      "name": "confirmPayment",
      "outputs": [],
      "stateMutability": "payable",
      "type": "function",
      "payable": true
    },
    {
      "inputs": [],
      "name": "confirmReceived",
      "outputs": [],
      "stateMutability": "nonpayable",
      "type": "function"
    },
    {
      "inputs": [],
      "name": "itemReturned",
      "outputs": [],
      "stateMutability": "payable",
      "type": "function",
      "payable": true
    },
    {
      "inputs": [],
      "name": "abortContract",
      "outputs": [],
      "stateMutability": "payable",
      "type": "function",
      "payable": true
    },
    {
      "inputs": [],
      "name": "getWalletAddress",
      "outputs": [
        {
          "internalType": "address",
          "name": "",
          "type": "address"
        }
      ],
      "stateMutability": "view",
      "type": "function",
      "constant": true
    },
    {
      "inputs": [],
      "name": "getCurrentContractStatus",
      "outputs": [
        {
          "internalType": "string",
          "name": "",
          "type": "string"
        }
      ],
      "stateMutability": "view",
      "type": "function",
      "constant": true
    },
    {
      "inputs": [],
      "name": "getTransactionAmount",
      "outputs": [],
      "stateMutability": "nonpayable",
      "type": "function"
    }
  ],
  "bytecode": "0x60806040526040516200128538038062001285833981810160405281019062000029919062000190565b826000806101000a81548173ffffffffffffffffffffffffffffffffffffffff021916908373ffffffffffffffffffffffffffffffffffffffff16021790555033600160006101000a81548173ffffffffffffffffffffffffffffffffffffffff021916908373ffffffffffffffffffffffffffffffffffffffff160217905550670de0b6b3a764000082620000c091906200021b565b600281905550670de0b6b3a764000081620000dc91906200021b565b6003819055505050506200027c565b600080fd5b600073ffffffffffffffffffffffffffffffffffffffff82169050919050565b60006200011d82620000f0565b9050919050565b6200012f8162000110565b81146200013b57600080fd5b50565b6000815190506200014f8162000124565b92915050565b6000819050919050565b6200016a8162000155565b81146200017657600080fd5b50565b6000815190506200018a816200015f565b92915050565b600080600060608486031215620001ac57620001ab620000eb565b5b6000620001bc868287016200013e565b9350506020620001cf8682870162000179565b9250506040620001e28682870162000179565b9150509250925092565b7f4e487b7100000000000000000000000000000000000000000000000000000000600052601160045260246000fd5b6000620002288262000155565b9150620002358362000155565b9250817fffffffffffffffffffffffffffffffffffffffffffffffffffffffffffffffff0483118215151615620002715762000270620001ec565b5b828202905092915050565b610ff9806200028c6000396000f3fe6080604052600436106100a65760003560e01c806373fac6f01161006457806373fac6f01461016b57806384f12bfe146101825780638da5cb5b1461018c5780639f7728f7146101b7578063ad9febb2146101ce578063d0e30db0146101f9576100a6565b8062827a5d146100ab57806304d2dec6146100b55780630c3f6acf146100e05780632e88ab0b1461010b5780634a9d0d4a1461013657806362ef1f8114610161575b600080fd5b6100b3610224565b005b3480156100c157600080fd5b506100ca610427565b6040516100d79190610b17565b60405180910390f35b3480156100ec57600080fd5b506100f5610451565b6040516101029190610ba9565b60405180910390f35b34801561011757600080fd5b50610120610464565b60405161012d9190610be5565b60405180910390f35b34801561014257600080fd5b5061014b61048a565b6040516101589190610c19565b60405180910390f35b610169610490565b005b34801561017757600080fd5b50610180610607565b005b61018a61073a565b005b34801561019857600080fd5b506101a16108d6565b6040516101ae9190610be5565b60405180910390f35b3480156101c357600080fd5b506101cc6108fa565b005b3480156101da57600080fd5b506101e36108fc565b6040516101f09190610ccd565b60405180910390f35b34801561020557600080fd5b5061020e610ad0565b60405161021b9190610c19565b60405180910390f35b60008054906101000a900473ffffffffffffffffffffffffffffffffffffffff1673ffffffffffffffffffffffffffffffffffffffff163373ffffffffffffffffffffffffffffffffffffffff16146102b2576040517f08c379a00000000000000000000000000000000000000000000000000000000081526004016102a990610d3b565b60405180910390fd5b600260038111156102c6576102c5610b32565b5b600460009054906101000a900460ff1660038111156102e8576102e7610b32565b5b14610328576040517f08c379a000000000000000000000000000000000000000000000000000000000815260040161031f90610dcd565b60405180910390fd5b6003600460006101000a81548160ff0219169083600381111561034e5761034d610b32565b5b021790555060008054906101000a900473ffffffffffffffffffffffffffffffffffffffff1673ffffffffffffffffffffffffffffffffffffffff166108fc6002549081150290604051600060405180830381858888f193505050501580156103bb573d6000803e3d6000fd5b50600160009054906101000a900473ffffffffffffffffffffffffffffffffffffffff1673ffffffffffffffffffffffffffffffffffffffff166108fc479081150290604051600060405180830381858888f19350505050158015610424573d6000803e3d6000fd5b50565b6000600160009054906101000a900473ffffffffffffffffffffffffffffffffffffffff16905090565b600460009054906101000a900460ff1681565b600160009054906101000a900473ffffffffffffffffffffffffffffffffffffffff1681565b60025481565b600160009054906101000a900473ffffffffffffffffffffffffffffffffffffffff1673ffffffffffffffffffffffffffffffffffffffff163373ffffffffffffffffffffffffffffffffffffffff1614610520576040517f08c379a000000000000000000000000000000000000000000000000000000000815260040161051790610e5f565b60405180910390fd5b6000600381111561053457610533610b32565b5b600460009054906101000a900460ff16600381111561055657610555610b32565b5b14610596576040517f08c379a000000000000000000000000000000000000000000000000000000000815260040161058d90610ecb565b60405180910390fd5b60025434146105da576040517f08c379a00000000000000000000000000000000000000000000000000000000081526004016105d190610f37565b60405180910390fd5b6001600460006101000a81548160ff02191690836003811115610600576105ff610b32565b5b0217905550565b600160009054906101000a900473ffffffffffffffffffffffffffffffffffffffff1673ffffffffffffffffffffffffffffffffffffffff163373ffffffffffffffffffffffffffffffffffffffff1614610697576040517f08c379a000000000000000000000000000000000000000000000000000000000815260040161068e90610e5f565b60405180910390fd5b600160038111156106ab576106aa610b32565b5b600460009054906101000a900460ff1660038111156106cd576106cc610b32565b5b1461070d576040517f08c379a000000000000000000000000000000000000000000000000000000000815260040161070490610fa3565b60405180910390fd5b6002600460006101000a81548160ff0219169083600381111561073357610732610b32565b5b0217905550565b600160009054906101000a900473ffffffffffffffffffffffffffffffffffffffff1673ffffffffffffffffffffffffffffffffffffffff163373ffffffffffffffffffffffffffffffffffffffff16146107ca576040517f08c379a00000000000000000000000000000000000000000000000000000000081526004016107c190610e5f565b60405180910390fd5b600160038111156107de576107dd610b32565b5b600460009054906101000a900460ff166003811115610800576107ff610b32565b5b14610840576040517f08c379a000000000000000000000000000000000000000000000000000000000815260040161083790610fa3565b60405180910390fd5b6003600460006101000a81548160ff0219169083600381111561086657610865610b32565b5b0217905550600160009054906101000a900473ffffffffffffffffffffffffffffffffffffffff1673ffffffffffffffffffffffffffffffffffffffff166108fc479081150290604051600060405180830381858888f193505050501580156108d3573d6000803e3d6000fd5b50565b60008054906101000a900473ffffffffffffffffffffffffffffffffffffffff1681565b565b60606000600460009054906101000a900460ff1690506000600381111561092657610925610b32565b5b81600381111561093957610938610b32565b5b0361097c576040518060400160405280600c81526020017f4465706f73697420506169640000000000000000000000000000000000000000815250915050610acd565b600160038111156109905761098f610b32565b5b8160038111156109a3576109a2610b32565b5b036109e6576040518060400160405280600781526020017f5374617274656400000000000000000000000000000000000000000000000000815250915050610acd565b600260038111156109fa576109f9610b32565b5b816003811115610a0d57610a0c610b32565b5b03610a50576040518060400160405280600781526020017f52656e74696e6700000000000000000000000000000000000000000000000000815250915050610acd565b600380811115610a6357610a62610b32565b5b816003811115610a7657610a75610b32565b5b03610ab9576040518060400160405280600881526020017f436f6d706c657465000000000000000000000000000000000000000000000000815250915050610acd565b604051806020016040528060008152509150505b90565b60035481565b600073ffffffffffffffffffffffffffffffffffffffff82169050919050565b6000610b0182610ad6565b9050919050565b610b1181610af6565b82525050565b6000602082019050610b2c6000830184610b08565b92915050565b7f4e487b7100000000000000000000000000000000000000000000000000000000600052602160045260246000fd5b60048110610b7257610b71610b32565b5b50565b6000819050610b8382610b61565b919050565b6000610b9382610b75565b9050919050565b610ba381610b88565b82525050565b6000602082019050610bbe6000830184610b9a565b92915050565b6000610bcf82610ad6565b9050919050565b610bdf81610bc4565b82525050565b6000602082019050610bfa6000830184610bd6565b92915050565b6000819050919050565b610c1381610c00565b82525050565b6000602082019050610c2e6000830184610c0a565b92915050565b600081519050919050565b600082825260208201905092915050565b60005b83811015610c6e578082015181840152602081019050610c53565b83811115610c7d576000848401525b50505050565b6000601f19601f8301169050919050565b6000610c9f82610c34565b610ca98185610c3f565b9350610cb9818560208601610c50565b610cc281610c83565b840191505092915050565b60006020820190508181036000830152610ce78184610c94565b905092915050565b7f4f6e6c79204f776e65722063616e2063616c6c2074686973206d6574686f6421600082015250565b6000610d25602083610c3f565b9150610d3082610cef565b602082019050919050565b60006020820190508181036000830152610d5481610d18565b9050919050565b7f436f6e747261637420617265206e6f7420696e2052454e54494e47207374617460008201527f6521000000000000000000000000000000000000000000000000000000000000602082015250565b6000610db7602283610c3f565b9150610dc282610d5b565b604082019050919050565b60006020820190508181036000830152610de681610daa565b9050919050565b7f4f6e6c792052656e7465722063616e2063616c6c2074686973206d6574686f6460008201527f2100000000000000000000000000000000000000000000000000000000000000602082015250565b6000610e49602183610c3f565b9150610e5482610ded565b604082019050919050565b60006020820190508181036000830152610e7881610e3c565b9050919050565b7f436f6e747261637420616c726561647920737461727465642100000000000000600082015250565b6000610eb5601983610c3f565b9150610ec082610e7f565b602082019050919050565b60006020820190508181036000830152610ee481610ea8565b9050919050565b7f57726f6e6720616d6f756e742100000000000000000000000000000000000000600082015250565b6000610f21600d83610c3f565b9150610f2c82610eeb565b602082019050919050565b60006020820190508181036000830152610f5081610f14565b9050919050565b7f436f6e747261637420646f6573206e6f7420696e697469617465642100000000600082015250565b6000610f8d601c83610c3f565b9150610f9882610f57565b602082019050919050565b60006020820190508181036000830152610fbc81610f80565b905091905056fea26469706673582212203b1a93c0aaf2668329e7e04cae5fc03501406ed31bf597aecc36c1b896be057964736f6c634300080e0033",
  "immutableReferences": {},
  "source": "// SPDX-License-Identifier: MIT\r\npragma solidity 0.8.14;\r\n\r\ncontract Rental {\r\n\r\n    address payable public owner;\r\n    address payable public renter;\r\n\r\n    uint public item_price;\r\n    uint public deposit;\r\n\r\n    enum State { DEPOSIT_PAID, STARTED, RENTING, COMPLETE }\r\n    State public currentState;\r\n\r\n    // EVENTS\r\n\r\n\r\n    // MODIFIERS\r\n    modifier onlyRenter() {\r\n        require(msg.sender == renter, \"Only Renter can call this method!\");\r\n        _;\r\n    }\r\n\r\n    modifier onlyOwner() {\r\n        require(msg.sender == owner, \"Only Owner can call this method!\");\r\n        _;\r\n    }\r\n\r\n    // FUNCTIONS\r\n    constructor(address payable _owner, uint _price, uint _deposit) payable {\r\n        owner = _owner;\r\n        renter = payable (msg.sender);\r\n        item_price = _price * (1 ether);\r\n        deposit = _deposit * (1 ether);\r\n        // require(msg.value == deposit, \"Wrong deposit amount!\");\r\n    }\r\n\r\n    //Where renter click on confirm checkout bttn, initiate contract\r\n    function confirmPayment() onlyRenter payable public {\r\n        require(currentState == State.DEPOSIT_PAID, \"Contract already started!\");\r\n        require(msg.value == item_price, \"Wrong amount!\");\r\n        // owner.transfer(deposit);\r\n        // owner.transfer(price);\r\n        currentState = State.STARTED;\r\n    }\r\n\r\n    //Where renter click on confirm receive item in good condition\r\n    function confirmReceived() onlyRenter public {\r\n        require(currentState == State.STARTED, \"Contract does not initiated!\");\r\n        currentState = State.RENTING;\r\n    }\r\n\r\n    //Where owner click on item is return\r\n    function itemReturned() onlyOwner payable public {\r\n        require(currentState == State.RENTING, \"Contract are not in RENTING state!\");\r\n        currentState = State.COMPLETE;\r\n        owner.transfer(item_price);\r\n        renter.transfer(address(this).balance);\r\n    }\r\n\r\n    //Where renter abort contract due to item not in good condition/do not receive item\r\n    function abortContract() onlyRenter payable public {\r\n        require(currentState == State.STARTED, \"Contract does not initiated!\"); \r\n        currentState = State.COMPLETE;\r\n        renter.transfer(address(this).balance);\r\n    }\r\n    \r\n    //Get current connected wallet address\r\n    function getWalletAddress() public view returns (address) {\r\n        return renter;\r\n    }\r\n\r\n    //Get current contract status (DEPOSIT_PAID, STARTED, RENTING, COMPLETE)\r\n    function getCurrentContractStatus() external view returns (string memory) {\r\n        State temp = currentState;\r\n        if (temp == State.DEPOSIT_PAID) return \"Deposit Paid\";\r\n        if (temp == State.STARTED) return \"Started\";\r\n        if (temp == State.RENTING) return \"Renting\";\r\n        if (temp == State.COMPLETE) return \"Complete\";\r\n        return \"\";\r\n    }\r\n\r\n    //Get cotract transaction amount\r\n    function getTransactionAmount() public {\r\n        \r\n    }\r\n}",
  "sourcePath": "C:\\Users\\user\\Workspace\\fyp\\client\\contracts\\Rental.sol",
  "compiler": {
    "name": "solc",
    "version": "0.8.14+commit.80d49f37.Emscripten.clang"
  },
  "schemaVersion": "3.4.4",
  "updatedAt": "2022-06-06T07:30:03.107Z",
  "networkType": "ethereum",
  "devdoc": {
    "kind": "dev",
    "methods": {},
    "version": 1
  },
  "userdoc": {
    "kind": "user",
    "methods": {},
    "version": 1
  }
}