{
  "contractName": "Rental",
  "abi": [
    {
      "inputs": [
        {
          "internalType": "address payable",
          "name": "_owner",
          "type": "address"
        },
        {
          "internalType": "address payable",
          "name": "_renter",
          "type": "address"
        },
        {
          "internalType": "uint256",
          "name": "_price",
          "type": "uint256"
        }
      ],
      "stateMutability": "nonpayable",
      "type": "constructor"
    },
    {
      "inputs": [],
      "name": "currentState",
      "outputs": [
        {
          "internalType": "enum Rental.State",
          "name": "",
          "type": "uint8"
        }
      ],
      "stateMutability": "view",
      "type": "function"
    },
    {
      "inputs": [],
      "name": "owner",
      "outputs": [
        {
          "internalType": "address payable",
          "name": "",
          "type": "address"
        }
      ],
      "stateMutability": "view",
      "type": "function"
    },
    {
      "inputs": [],
      "name": "price",
      "outputs": [
        {
          "internalType": "uint256",
          "name": "",
          "type": "uint256"
        }
      ],
      "stateMutability": "view",
      "type": "function"
    },
    {
      "inputs": [],
      "name": "renter",
      "outputs": [
        {
          "internalType": "address payable",
          "name": "",
          "type": "address"
        }
      ],
      "stateMutability": "view",
      "type": "function"
    },
    {
      "inputs": [],
      "name": "confirmPayment",
      "outputs": [],
      "stateMutability": "payable",
      "type": "function"
    },
    {
      "inputs": [],
      "name": "confirmReceived",
      "outputs": [],
      "stateMutability": "nonpayable",
      "type": "function"
    },
    {
      "inputs": [],
      "name": "itemReturned",
      "outputs": [],
      "stateMutability": "payable",
      "type": "function"
    },
    {
      "inputs": [],
      "name": "abort",
      "outputs": [],
      "stateMutability": "payable",
      "type": "function"
    }
  ],
  "bytecode": "0x60806040523480156200001157600080fd5b5060405162000e6438038062000e64833981810160405281019062000037919062000183565b82600160006101000a81548173ffffffffffffffffffffffffffffffffffffffff021916908373ffffffffffffffffffffffffffffffffffffffff16021790555081600260006101000a81548173ffffffffffffffffffffffffffffffffffffffff021916908373ffffffffffffffffffffffffffffffffffffffff160217905550670de0b6b3a764000081620000cf91906200020e565b6000819055505050506200026f565b600080fd5b600073ffffffffffffffffffffffffffffffffffffffff82169050919050565b60006200011082620000e3565b9050919050565b620001228162000103565b81146200012e57600080fd5b50565b600081519050620001428162000117565b92915050565b6000819050919050565b6200015d8162000148565b81146200016957600080fd5b50565b6000815190506200017d8162000152565b92915050565b6000806000606084860312156200019f576200019e620000de565b5b6000620001af8682870162000131565b9350506020620001c28682870162000131565b9250506040620001d5868287016200016c565b9150509250925092565b7f4e487b7100000000000000000000000000000000000000000000000000000000600052601160045260246000fd5b60006200021b8262000148565b9150620002288362000148565b9250817fffffffffffffffffffffffffffffffffffffffffffffffffffffffffffffffff0483118215151615620002645762000263620001df565b5b828202905092915050565b610be5806200027f6000396000f3fe60806040526004361061007a5760003560e01c806362ef1f811161004e57806362ef1f81146100e957806373fac6f0146100f35780638da5cb5b1461010a578063a035b1fe146101355761007a565b8062827a5d1461007f5780630c3f6acf146100895780632e88ab0b146100b457806335a063b4146100df575b600080fd5b610087610160565b005b34801561009557600080fd5b5061009e6102fe565b6040516100ab919061081f565b60405180910390f35b3480156100c057600080fd5b506100c9610311565b6040516100d6919061087b565b60405180910390f35b6100e7610337565b005b6100f16104d3565b005b3480156100ff57600080fd5b5061010861064a565b005b34801561011657600080fd5b5061011f61077c565b60405161012c919061087b565b60405180910390f35b34801561014157600080fd5b5061014a6107a2565b60405161015791906108af565b60405180910390f35b600160009054906101000a900473ffffffffffffffffffffffffffffffffffffffff1673ffffffffffffffffffffffffffffffffffffffff163373ffffffffffffffffffffffffffffffffffffffff16146101f0576040517f08c379a00000000000000000000000000000000000000000000000000000000081526004016101e790610927565b60405180910390fd5b60026003811115610204576102036107a8565b5b600260159054906101000a900460ff166003811115610226576102256107a8565b5b14610266576040517f08c379a000000000000000000000000000000000000000000000000000000000815260040161025d906109b9565b60405180910390fd5b6003600260156101000a81548160ff0219169083600381111561028c5761028b6107a8565b5b0217905550600160009054906101000a900473ffffffffffffffffffffffffffffffffffffffff1673ffffffffffffffffffffffffffffffffffffffff166108fc6000549081150290604051600060405180830381858888f193505050501580156102fb573d6000803e3d6000fd5b50565b600260159054906101000a900460ff1681565b600260009054906101000a900473ffffffffffffffffffffffffffffffffffffffff1681565b600260009054906101000a900473ffffffffffffffffffffffffffffffffffffffff1673ffffffffffffffffffffffffffffffffffffffff163373ffffffffffffffffffffffffffffffffffffffff16146103c7576040517f08c379a00000000000000000000000000000000000000000000000000000000081526004016103be90610a4b565b60405180910390fd5b600160038111156103db576103da6107a8565b5b600260159054906101000a900460ff1660038111156103fd576103fc6107a8565b5b1461043d576040517f08c379a000000000000000000000000000000000000000000000000000000000815260040161043490610ab7565b60405180910390fd5b6003600260156101000a81548160ff02191690836003811115610463576104626107a8565b5b0217905550600260009054906101000a900473ffffffffffffffffffffffffffffffffffffffff1673ffffffffffffffffffffffffffffffffffffffff166108fc479081150290604051600060405180830381858888f193505050501580156104d0573d6000803e3d6000fd5b50565b600260009054906101000a900473ffffffffffffffffffffffffffffffffffffffff1673ffffffffffffffffffffffffffffffffffffffff163373ffffffffffffffffffffffffffffffffffffffff1614610563576040517f08c379a000000000000000000000000000000000000000000000000000000000815260040161055a90610a4b565b60405180910390fd5b60006003811115610577576105766107a8565b5b600260159054906101000a900460ff166003811115610599576105986107a8565b5b146105d9576040517f08c379a00000000000000000000000000000000000000000000000000000000081526004016105d090610b23565b60405180910390fd5b600054341461061d576040517f08c379a000000000000000000000000000000000000000000000000000000000815260040161061490610b8f565b60405180910390fd5b6001600260156101000a81548160ff02191690836003811115610643576106426107a8565b5b0217905550565b600260009054906101000a900473ffffffffffffffffffffffffffffffffffffffff1673ffffffffffffffffffffffffffffffffffffffff163373ffffffffffffffffffffffffffffffffffffffff16146106da576040517f08c379a00000000000000000000000000000000000000000000000000000000081526004016106d190610a4b565b60405180910390fd5b600160038111156106ee576106ed6107a8565b5b600260159054906101000a900460ff1660038111156107105761070f6107a8565b5b14610750576040517f08c379a000000000000000000000000000000000000000000000000000000000815260040161074790610ab7565b60405180910390fd5b60028060156101000a81548160ff02191690836003811115610775576107746107a8565b5b0217905550565b600160009054906101000a900473ffffffffffffffffffffffffffffffffffffffff1681565b60005481565b7f4e487b7100000000000000000000000000000000000000000000000000000000600052602160045260246000fd5b600481106107e8576107e76107a8565b5b50565b60008190506107f9826107d7565b919050565b6000610809826107eb565b9050919050565b610819816107fe565b82525050565b60006020820190506108346000830184610810565b92915050565b600073ffffffffffffffffffffffffffffffffffffffff82169050919050565b60006108658261083a565b9050919050565b6108758161085a565b82525050565b6000602082019050610890600083018461086c565b92915050565b6000819050919050565b6108a981610896565b82525050565b60006020820190506108c460008301846108a0565b92915050565b600082825260208201905092915050565b7f4f6e6c79204f776e65722063616e2063616c6c2074686973206d6574686f6421600082015250565b60006109116020836108ca565b915061091c826108db565b602082019050919050565b6000602082019050818103600083015261094081610904565b9050919050565b7f436f6e747261637420617265206e6f7420696e2052454e54494e47207374617460008201527f6521000000000000000000000000000000000000000000000000000000000000602082015250565b60006109a36022836108ca565b91506109ae82610947565b604082019050919050565b600060208201905081810360008301526109d281610996565b9050919050565b7f4f6e6c792052656e7465722063616e2063616c6c2074686973206d6574686f6460008201527f2100000000000000000000000000000000000000000000000000000000000000602082015250565b6000610a356021836108ca565b9150610a40826109d9565b604082019050919050565b60006020820190508181036000830152610a6481610a28565b9050919050565b7f436f6e747261637420646f6573206e6f7420696e697469617465642100000000600082015250565b6000610aa1601c836108ca565b9150610aac82610a6b565b602082019050919050565b60006020820190508181036000830152610ad081610a94565b9050919050565b7f436f6e747261637420616c726561647920737461727465642100000000000000600082015250565b6000610b0d6019836108ca565b9150610b1882610ad7565b602082019050919050565b60006020820190508181036000830152610b3c81610b00565b9050919050565b7f57726f6e6720616d6f756e742100000000000000000000000000000000000000600082015250565b6000610b79600d836108ca565b9150610b8482610b43565b602082019050919050565b60006020820190508181036000830152610ba881610b6c565b905091905056fea2646970667358221220e261a402653264a12325f9b13087add44e7a4e7252263572f882b977f2656ea364736f6c634300080b0033",
  "immutableReferences": {},
  "source": "pragma solidity >=0.4.22 <0.9.0;\r\n\r\ncontract Rental {\r\n\r\n    uint public price;\r\n    // uint public deposit;\r\n\r\n    address payable public owner;\r\n    address payable public renter;\r\n    \r\n    enum Condition { GOOD, BAD }\r\n    Condition currentCondition;\r\n\r\n    enum State { NOT_INITIATED, STARTED, RENTING, COMPLETE }\r\n    State public currentState;\r\n\r\n    // MODIFIERS\r\n    modifier onlyRenter() {\r\n        require(msg.sender == renter, \"Only Renter can call this method!\");\r\n        _;\r\n    }\r\n\r\n    modifier onlyOwner() {\r\n        require(msg.sender == owner, \"Only Owner can call this method!\");\r\n        _;\r\n    }\r\n\r\n    // FUNCTIONS\r\n    constructor(address payable _owner, address payable _renter, uint _price) {\r\n        owner = _owner;\r\n        renter = _renter;\r\n        price = _price * (1 ether);\r\n        // deposit = _deposit;\r\n    }\r\n\r\n    //Where renter click on confirm checkout bttn, initiate contract\r\n    function confirmPayment() onlyRenter payable public {\r\n        require(currentState == State.NOT_INITIATED, \"Contract already started!\");\r\n        require(msg.value == price, \"Wrong amount!\");\r\n        // require(msg.value == deposit, \"Wrong deposit amount!\");\r\n        // owner.transfer(deposit);\r\n        // owner.transfer(price);\r\n        currentState = State.STARTED;\r\n    }\r\n\r\n    //Where renter click on confirm receive item in good condition\r\n    function confirmReceived() onlyRenter public {\r\n        // require(currentCondition == Condition.GOOD, \"Item Received are not in good condition!\");\r\n        require(currentState == State.STARTED, \"Contract does not initiated!\");\r\n        currentState = State.RENTING;\r\n    }\r\n\r\n    //Where owner click on item is return\r\n    function itemReturned() onlyOwner payable public {\r\n        // require(currentCondition == Condition.GOOD, \"Item Received are not in good condition!\");\r\n        require(currentState == State.RENTING, \"Contract are not in RENTING state!\");\r\n        currentState = State.COMPLETE;\r\n        owner.transfer(price);\r\n        // owner.transfer(address(this).balance);\r\n    }\r\n\r\n    //Where renter abort contract due to item not in good condition/do not receive item\r\n    function abort() onlyRenter payable public {\r\n        require(currentState == State.STARTED, \"Contract does not initiated!\");\r\n        currentState = State.COMPLETE;\r\n        renter.transfer(address(this).balance);\r\n    }\r\n    \r\n}",
  "sourcePath": "C:\\Users\\user\\Workspace\\fyp\\client\\contracts\\Rental.sol",
  "compiler": {
    "name": "solc",
    "version": "0.8.11+commit.d7f03943.Emscripten.clang"
  },
  "schemaVersion": "3.4.4",
  "updatedAt": "2022-05-29T14:12:12.183Z",
  "devdoc": {
    "kind": "dev",
    "methods": {},
    "version": 1
  },
  "userdoc": {
    "kind": "user",
    "methods": {},
    "version": 1
  }
}